S00B000073744D4A7833436B1D
S11310007E11CB36860DBD1071860ABD1071323942
S113101036A60081002706BD10710820F432393647
S11310208101270586A87E102B8680BD1051A6005D
S113103081002706BD103C0820F432393C183C36A8
S113104037CC00010EBD10DF3332B77C811838383D
S1131050393C183C3637CC000F0EBD10DF3332B7A5
S11310607C8018383839183C37BD8A0A1733183849
S11310703936373C183C163ABD89E51718383833E9
S11310803239000000003C183C3637FD1084CC0097
S1131090001AB310842D078630BD103C203BCC27AA
S11310A010CE000A1AB310842F07028FCE000A2034
S11310B0F3FD1082FC1084FE1082028F178B30BD6A
S11310C0103CFF1084FC1082CE000A028C00002722
S11310D008FF1082FC108420E133321838383918A4
S11310E03CBD8A37183839000000003C183C3637BC
S11310F0FD10E9CC00001AB310E92D078630BD10AD
S113110071203BCC2710CE000A1AB310E92F070236
S11311108FCE000A20F3FD10E7FC10E9FE10E70271
S11311208F178B30BD1071FF10E9FC10E7CE000A59
S1131130028C00002708FF10E7FC10E920E133329D
S1131140183838393617840F810A2D06800A8B61C6
S113115080308B30BD107132393754545454BD1122
S11311604433BD1144393716BD115933BD115939B2
S1131170368620BD107132BD107136863DBD1071AA
S1131180323937363C183C073630BD10038644BD2F
S1131190117030A605E606BD11668658BD1170ECC7
S11311A003BD11668659BD1170EC01BD11668653ED
S11311B0BD11708FC30008BD11668643BD11703325
S11311C0BD11591706183838323339CE4000BD10D6
S11311D010CE1252FF7BECCE1249FF7BCB86F0B7C8
S11311E08026B680248A20B78024F6408E5D2E03A4
S11311F07E11EAF680274FF7408FC602F740907EB3
S113120012024FF640908F4FF6408FC1E3C10A257A
S113121013028C000127105D270AF640905CF7400A
S1131220907E12027E11F37E122A8600B7408E4F02
S1131230F68027F74090B640904D27EEF6408F1089
S113124024E84FF640907E1258B680258AC0B780B5
S1131250253BC601F7408E3B860DB7408F8606B707
S113126040908601CE4049BD101F8601CE4029BD65
S1131270101F4FF6408FBD1086862CBD103C862073
S1131280BD103C4FF64090BD10868602CE4038BD5E
S1131290101FB6408E4D27FA8600B7408EF6408F59
S11312A05AB67C00B740914D27061024037E12BB2A
S11312B08602CE405ABD101F7E12928603B740911B
S11312C04FF64091B64090B7408CB64091B74092EB
S11312D0B640924A2710B74092B6408CF640903DF3
S11312E0F7408C7E12D04FF6408F8F4FF6408C0221
S11312F0F74093B6408FBD1071B64090BD1071B6E3
S10B13004093BD10717E11CB76
S113400050756C736520416363756D756C61746F75
S11340107220546573742050726F6772616D0A0A5E
S113402000656E642E0A00200050502C2050493D3B
S113403020002050493D20004B65793D7377697419
S1134040636865732B4953520020202020202020D0
S1134050202020202020202020004B6579213D3085
S1134060202626203C2050502D310020204B6579FD
S113407020746F6F20626967212020000000000017
S1134080000000000000000000000000000000002C
S10740900000000028
S9031000EC
